:020000040800F2
:1000000000500020390300088B0300089703000804
:100010009D030008A3030008A903000800000000D6
:10002000000000000000000000000000AF03000816
:10003000BB03000800000000C7030008D503000848
:100040008903000889030008890300088903000860
:100050008903000889030008890300088903000850
:100060008903000889030008890300088903000840
:100070008903000889030008890300088903000830
:100080008903000889030008890300088903000820
:100090008903000889030008890300088903000810
:1000A0008903000889030008890300088903000800
:1000B00089030008890300088903000889030008F0
:1000C00089030008890300088903000889030008E0
:1000D00089030008890300088903000889030008D0
:1000E0008903000889030008890300080000000054
:1000F0000000000000000000000000000000000000
:0C01000000000000000000005FF808F1A3
:10010C0010B5054C237833B9044B13B10448AFF345
:10011C0000800123237010BD0400002000000000AB
:10012C00AC05000808B5034B1BB103490348AFF3FA
:10013C00008008BD0000000008000020AC0500088D
:10014C0080B483B000AF03463960FB7197F9073078
:10015C00002B0BDA0D49FB7903F00F03043B3A68D3
:10016C00D2B21201D2B20B441A7609E0084997F9BF
:10017C0007303A68D2B21201D2B20B4483F8002392
:10018C0000BF0C37BD4680BC704700BF00ED00E0DF
:10019C0000E100E080B582B000AF78607B68B3F11D
:1001AC00807F01D3012311E00A4A7B6823F07F434F
:1001BC00013B53600F214FF0FF30FFF7C1FF054BA0
:1001CC0000229A60034B07221A6000231846083756
:1001DC00BD4680BD10E000E080B500AF00F06AF8CD
:1001EC0000F08AF8054B1B68054AA2FB03239B0908
:1001FC001846FFF7CFFF00F005F8FCE700000020E1
:10020C00D34D621080B582B000AF1D4B9B6803F4D8
:10021C008053B3F5805F02D1642000F035F8184BA1
:10022C009B6803F48053B3F5805F25D1154B1B6895
:10023C007B601BE0134B1A687B68D31AB3F57A7F8B
:10024C000ED9104B1A687B68D31A40F6B73293421A
:10025C0006D80B4A0A4BDB6843F04003D36005E039
:10026C00074A074BDB6823F04003D360044B9B68C1
:10027C0003F48053002BDDD100BF0837BD4680BD91
:10028C00000C01402000002080B485B000AF7860E5
:10029C00074B1B68FB6000BF054B1A68FB68D21A42
:1002AC007B689A42F8D300BF1437BD4680BC7047B8
:1002BC002000002080B400AF0D4A0D4B9B6943F029
:1002CC00080393610B4A0B4B1B6823F0807313607C
:1002DC00084A084B1B6843F000731360054A054B32
:1002EC001B6823F04063136000BFBD4680BC7047A1
:1002FC0000100240000C014080B400AF0A4A0A4BC7
:10030C005B6823F440335360074A074B5B6843F444
:10031C0000235360044A044B5B6823F4802353602E
:10032C0000BFBD4680BC7047000C0140DFF834D0E4
:10033C00002103E00C4B5B58435004310B480C4B31
:10034C0042189A42F6D30B4A02E0002342F8043BCF
:10035C00094B9A42F9D300F045F800F0FDF8FFF78D
:10036C003BFF704700500020CC0500080000002027
:10037C00040000200400002024000020FEE780B4CC
:10038C0000AF00BFBD4680BC704780B400AFFEE735
:10039C0080B400AFFEE780B400AFFEE780B400AFDE
:1003AC00FEE780B400AF00BFBD4680BC704780B490
:1003BC0000AF00BFBD4680BC704780B400AF00BF2B
:1003CC00BD4680BC7047000080B400AF044B1B6876
:1003DC000133034A136000BFBD4680BC704700BFA9
:1003EC002000002080B500AF154A154B1B6843F068
:1003FC00010313601249124B5A68124B13404B60A5
:10040C000F4A0F4B1B6823F0847323F48033136063
:10041C000B4A0B4B1B6823F480231360084A084BD0
:10042C005B6823F4FE035360054B4FF41F029A6084
:10043C0000F00CF8044B4FF000629A6000BF80BDD6
:10044C00001002400000FFF800ED00E080B500AFA6
:10045C0000F002F800BF80BD80B483B000AF002371
:10046C007B6000233B603A4A394B1B6843F4803372
:10047C001360374B1B6803F400333B607B6801331C
:10048C007B603B68002B03D17B68B3F5A06FF0D188
:10049C002F4B1B6803F40033002B02D001233B606D
:1004AC0001E000233B603B68012B4BD1294A294BCF
:1004BC001B6843F010031360264A264B1B6823F07D
:1004CC0003031360234A234B1B6843F0020313609E
:1004DC001F4A1F4B5B6853601D4A1D4B5B68536082
:1004EC001B4A1B4B5B6843F480635360184A184BE0
:1004FC005B6823F47C135360154A154B5B6843F41B
:10050C00E8135360124A124B1B6843F0807313605C
:10051C0000BF0F4B1B6803F00073002BF9D00C4A83
:10052C000B4B5B6823F003035360094A084B5B6871
:10053C0043F00203536000BF054B5B6803F00C03F0
:10054C00082BF9D100BF0C37BD4680BC704700BFEB
:10055C00001002400020024070B500250C4E0D4CDE
:10056C00A41BA410A54209D100F01AF800250A4ECC
:10057C000A4CA41BA410A54205D170BD56F8253019
:10058C0098470135EEE756F8253098470135F2E7E4
:10059C00C4050008C4050008C4050008C805000807
:1005AC00F8B500BFF8BC08BC9E467047F8B500BF54
:0805BC00F8BC08BC9E46704724
:0405C40031010008F9
:0405C8000D01000819
:0405CC0000A24A043B
:0400000508000339B3
:00000001FF
